:100000000C942A000C9434000C9434000C943400AA
:100010000C9434000C9434000C9434000C94340090
:100020000C9434000C9434000C9434000C94340080
:100030000C9434000C9434000C9434000C94340070
:100040000C9434000C9434000C9434000C94340060
:100050000C94340011241FBECFE5D8E0DEBFCDBF25
:100060000E9425020C9454020C940000843409F47C
:100070003FC030F48234F1F060F5813461F00895CE
:100080008236C1F018F4813631F00895833609F1D3
:10009000843671F108952AB381E090E001C0880FA1
:1000A0006A95EAF7442311F0822B02C080958223DF
:1000B0008ABB089527B381E090E001C0880F6A955C
:1000C000EAF7442311F0822B02C08095822387BB7C
:1000D000089524B381E090E001C0880F6A95EAF7A3
:1000E000442311F0822B02C08095822384BB0895A3
:1000F00021B381E090E001C0880F6A95EAF74423BC
:1001000011F0822B02C08095822381BB0895843434
:1001100009F43FC030F48234F1F060F5813461F0CD
:1001200008958236C1F018F4813631F0089583368F
:1001300009F1843671F108952BB381E090E001C09C
:10014000880F6A95EAF7442311F0822B02C080954C
:1001500082238BBB089528B381E090E001C0880F13
:100160006A95EAF7442311F0822B02C0809582231E
:1001700088BB089525B381E090E001C0880F6A959F
:10018000EAF7442311F0822B02C08095822385BBBD
:10019000089522B381E090E001C0880F6A95EAF7E4
:1001A000442311F0822B02C08095822382BB0895E4
:1001B0000C948700843481F130F48234C9F010F556
:1001C000813461F00895823699F018F4813631F067
:1001D00008958336B9F08436F9F008952BB381E0A1
:1001E00090E001C0880F6A95EAF782278BBB0895DB
:1001F00028B381E090E001C0880F6A95EAF7822772
:1002000088BB089525B381E090E001C0880F6A950E
:10021000EAF7822785BB089522B381E090E001C010
:10022000880F6A95EAF7822782BB08958434C1F06B
:1002300030F4823489F090F4813461F023C0823646
:1002400059F018F4813631F01DC0833639F0843608
:1002500039F018C029B305C026B303C023B301C0C9
:1002600020B381E090E0062E02C0880F991F0A9407
:10027000E2F730E08223932302C0959587956A9533
:10028000E2F7089580E00895843439F130F482343F
:10029000B1F0E0F4813461F00895823681F018F411
:1002A000813631F00895833689F08436B1F00895AF
:1002B000662319F08FEF8ABB08951ABA0895662352
:1002C00019F08FEF87BB089517BA0895662319F0C8
:1002D0008FEF84BB089514BA0895662319F08FEF49
:1002E00081BB089511BA0895843439F130F4823411
:1002F000B1F0E0F4813461F00895823681F018F4B1
:10030000813631F00895833689F08436B1F008954E
:10031000662319F08FEF8BBB08951BBA08956623EF
:1003200019F08FEF88BB089518BA0895662319F065
:100330008FEF85BB089515BA0895662319F08FEFE6
:1003400082BB089512BA08958434C1F030F4823427
:1003500089F090F4813461F00895823659F018F4F0
:10036000813631F00895833639F0843639F00895B6
:100370006BBB089568BB089565BB089562BB089583
:100380008434F1F030F4823499F0B0F4813461F0C7
:100390000895823669F018F4813631F00895833675
:1003A00059F0843669F008958BB380958BBB08951E
:1003B00088B3809588BB089585B3809585BB0895E3
:1003C00082B3809582BB08958434C1F030F48234C6
:1003D00089F090F4813461F013C0823659F018F43A
:1003E000813631F00DC0833639F0843639F008C0DB
:1003F00089B3089586B3089583B3089580B30895AB
:1004000080E0089541E00C94360041E00C948700B0
:1004100040E00C9487000C94DA000C9487000C9454
:10042000160140E00C9436000C94160141E00C9447
:10043000360041E00C94870040E00C9487000C9457
:10044000DA000C9487000C94160162E081E40E94AB
:10045000110267E081E40E94160262E081E40E94DA
:100460001402811107C08FE19EE40197F1F700C0EB
:100470000000F3CF9FEF29EF80E0915020408040B3
:10048000E1F700C0000062E081E40E9414028823CA
:1004900051F367E081E40E941F0262E081E40E9460
:0C04A00014028111FACFDFCFF894FFCFD7
:00000001FF
